{
  "contractName": "CrowdFunding",
  "abi": [
    {
      "inputs": [],
      "stateMutability": "nonpayable",
      "type": "constructor"
    },
    {
      "anonymous": false,
      "inputs": [
        {
          "indexed": false,
          "internalType": "uint256",
          "name": "id",
          "type": "uint256"
        },
        {
          "indexed": false,
          "internalType": "string",
          "name": "name",
          "type": "string"
        },
        {
          "indexed": false,
          "internalType": "string",
          "name": "desc",
          "type": "string"
        },
        {
          "indexed": false,
          "internalType": "address",
          "name": "owner",
          "type": "address"
        },
        {
          "indexed": false,
          "internalType": "uint256",
          "name": "endDate",
          "type": "uint256"
        },
        {
          "indexed": false,
          "internalType": "bool",
          "name": "exists",
          "type": "bool"
        },
        {
          "indexed": false,
          "internalType": "uint256",
          "name": "balance",
          "type": "uint256"
        },
        {
          "indexed": false,
          "internalType": "uint256",
          "name": "target",
          "type": "uint256"
        }
      ],
      "name": "ProjectCreated",
      "type": "event"
    },
    {
      "anonymous": false,
      "inputs": [
        {
          "indexed": false,
          "internalType": "uint256",
          "name": "id",
          "type": "uint256"
        },
        {
          "indexed": false,
          "internalType": "string",
          "name": "name",
          "type": "string"
        },
        {
          "indexed": false,
          "internalType": "uint256",
          "name": "balance",
          "type": "uint256"
        }
      ],
      "name": "ProjectEnded",
      "type": "event"
    },
    {
      "anonymous": false,
      "inputs": [
        {
          "indexed": false,
          "internalType": "uint256",
          "name": "id",
          "type": "uint256"
        },
        {
          "indexed": false,
          "internalType": "address",
          "name": "owner",
          "type": "address"
        },
        {
          "indexed": false,
          "internalType": "address",
          "name": "funder",
          "type": "address"
        },
        {
          "indexed": false,
          "internalType": "uint256",
          "name": "amount",
          "type": "uint256"
        }
      ],
      "name": "ProjectFunded",
      "type": "event"
    },
    {
      "inputs": [
        {
          "internalType": "uint256",
          "name": "",
          "type": "uint256"
        },
        {
          "internalType": "address",
          "name": "",
          "type": "address"
        }
      ],
      "name": "contributions",
      "outputs": [
        {
          "internalType": "uint256",
          "name": "",
          "type": "uint256"
        }
      ],
      "stateMutability": "view",
      "type": "function",
      "constant": true
    },
    {
      "inputs": [],
      "name": "name",
      "outputs": [
        {
          "internalType": "string",
          "name": "",
          "type": "string"
        }
      ],
      "stateMutability": "view",
      "type": "function",
      "constant": true
    },
    {
      "inputs": [],
      "name": "projectCount",
      "outputs": [
        {
          "internalType": "uint256",
          "name": "",
          "type": "uint256"
        }
      ],
      "stateMutability": "view",
      "type": "function",
      "constant": true
    },
    {
      "inputs": [
        {
          "internalType": "uint256",
          "name": "",
          "type": "uint256"
        }
      ],
      "name": "projects",
      "outputs": [
        {
          "internalType": "uint256",
          "name": "id",
          "type": "uint256"
        },
        {
          "internalType": "string",
          "name": "name",
          "type": "string"
        },
        {
          "internalType": "string",
          "name": "desc",
          "type": "string"
        },
        {
          "internalType": "address",
          "name": "owner",
          "type": "address"
        },
        {
          "internalType": "uint256",
          "name": "endDate",
          "type": "uint256"
        },
        {
          "internalType": "bool",
          "name": "exists",
          "type": "bool"
        },
        {
          "internalType": "uint256",
          "name": "balance",
          "type": "uint256"
        },
        {
          "internalType": "uint256",
          "name": "target",
          "type": "uint256"
        }
      ],
      "stateMutability": "view",
      "type": "function",
      "constant": true
    },
    {
      "inputs": [
        {
          "internalType": "string",
          "name": "_name",
          "type": "string"
        },
        {
          "internalType": "string",
          "name": "_desc",
          "type": "string"
        },
        {
          "internalType": "uint256",
          "name": "_endDate",
          "type": "uint256"
        },
        {
          "internalType": "uint256",
          "name": "_target",
          "type": "uint256"
        }
      ],
      "name": "createProject",
      "outputs": [],
      "stateMutability": "nonpayable",
      "type": "function"
    },
    {
      "inputs": [
        {
          "internalType": "uint256",
          "name": "_id",
          "type": "uint256"
        }
      ],
      "name": "fundProject",
      "outputs": [],
      "stateMutability": "payable",
      "type": "function",
      "payable": true
    },
    {
      "inputs": [
        {
          "internalType": "uint256",
          "name": "_id",
          "type": "uint256"
        }
      ],
      "name": "closeProject",
      "outputs": [],
      "stateMutability": "nonpayable",
      "type": "function"
    },
    {
      "inputs": [
        {
          "internalType": "uint256",
          "name": "project_id",
          "type": "uint256"
        }
      ],
      "name": "getContibutionsLength",
      "outputs": [
        {
          "internalType": "uint256",
          "name": "length",
          "type": "uint256"
        }
      ],
      "stateMutability": "view",
      "type": "function",
      "constant": true
    },
    {
      "inputs": [
        {
          "internalType": "uint256",
          "name": "project_id",
          "type": "uint256"
        },
        {
          "internalType": "uint256",
          "name": "position",
          "type": "uint256"
        }
      ],
      "name": "getContributor",
      "outputs": [
        {
          "internalType": "address",
          "name": "",
          "type": "address"
        }
      ],
      "stateMutability": "view",
      "type": "function",
      "constant": true
    },
    {
      "inputs": [],
      "name": "balanceOfProjects",
      "outputs": [
        {
          "internalType": "uint256",
          "name": "",
          "type": "uint256"
        }
      ],
      "stateMutability": "view",
      "type": "function",
      "constant": true
    }
  ],
  "bytecode": "0x608060405260006001553480156200001657600080fd5b506040518060400160405280601d81526020017f4d61726b6574706c61636520666f722063726f77642066756e64696e6700000081525060009080519060200190620000649291906200006b565b5062000180565b82805462000079906200011b565b90600052602060002090601f0160209004810192826200009d5760008555620000e9565b82601f10620000b857805160ff1916838001178555620000e9565b82800160010185558215620000e9579182015b82811115620000e8578251825591602001919060010190620000cb565b5b509050620000f89190620000fc565b5090565b5b8082111562000117576000816000905550600101620000fd565b5090565b600060028204905060018216806200013457607f821691505b602082108114156200014b576200014a62000151565b5b50919050565b7f4e487b7100000000000000000000000000000000000000000000000000000000600052602260045260246000fd5b611dfb80620001906000396000f3fe6080604052600436106100915760003560e01c806344a982e71161005957806344a982e7146101aa5780636c563abe146101e757806393dc12e61461020357806394ba97091461022c578063d98125811461025557610091565b806306fdde0314610096578063107046bd146100c15780631e32880c1461010557806336fbad26146101425780633d891f591461016d575b600080fd5b3480156100a257600080fd5b506100ab610280565b6040516100b891906116ef565b60405180910390f35b3480156100cd57600080fd5b506100e860048036038101906100e39190611503565b61030e565b6040516100fc98979695949392919061189d565b60405180910390f35b34801561011157600080fd5b5061012c60048036038101906101279190611503565b610493565b60405161013991906117b1565b60405180910390f35b34801561014e57600080fd5b50610157610523565b60405161016491906117b1565b60405180910390f35b34801561017957600080fd5b50610194600480360381019061018f9190611530565b610529565b6040516101a191906117b1565b60405180910390f35b3480156101b657600080fd5b506101d160048036038101906101cc9190611570565b61054e565b6040516101de91906116d4565b60405180910390f35b61020160048036038101906101fc9190611503565b6105ef565b005b34801561020f57600080fd5b5061022a60048036038101906102259190611503565b610b2a565b005b34801561023857600080fd5b50610253600480360381019061024e9190611464565b610fb2565b005b34801561026157600080fd5b5061026a611178565b60405161027791906117b1565b60405180910390f35b6000805461028d90611acb565b80601f01602080910402602001604051908101604052809291908181526020018280546102b990611acb565b80156103065780601f106102db57610100808354040283529160200191610306565b820191906000526020600020905b8154815290600101906020018083116102e957829003601f168201915b505050505081565b600260205280600052604060002060009150905080600001549080600101805461033790611acb565b80601f016020809104026020016040519081016040528092919081815260200182805461036390611acb565b80156103b05780601f10610385576101008083540402835291602001916103b0565b820191906000526020600020905b81548152906001019060200180831161039357829003601f168201915b5050505050908060020180546103c590611acb565b80601f01602080910402602001604051908101604052809291908181526020018280546103f190611acb565b801561043e5780601f106104135761010080835404028352916020019161043e565b820191906000526020600020905b81548152906001019060200180831161042157829003601f168201915b5050505050908060030160009054906101000a900473ffffffffffffffffffffffffffffffffffffffff16908060040154908060050160009054906101000a900460ff16908060060154908060070154905088565b600081600115156002600083815260200190815260200160002060050160009054906101000a900460ff16151514610500576040517f08c379a00000000000000000000000000000000000000000000000000000000081526004016104f790611751565b60405180910390fd5b61051b60046000858152602001908152602001600020611180565b915050919050565b60015481565b6003602052816000526040600020602052806000526040600020600091509150505481565b600082600115156002600083815260200190815260200160002060050160009054906101000a900460ff161515146105bb576040517f08c379a00000000000000000000000000000000000000000000000000000000081526004016105b290611751565b60405180910390fd5b60006105e2846004600088815260200190815260200160002061119590919063ffffffff16565b9050809250505092915050565b80600115156002600083815260200190815260200160002060050160009054906101000a900460ff1615151461065a576040517f08c379a000000000000000000000000000000000000000000000000000000000815260040161065190611751565b60405180910390fd5b600060026000848152602001908152602001600020604051806101000160405290816000820154815260200160018201805461069590611acb565b80601f01602080910402602001604051908101604052809291908181526020018280546106c190611acb565b801561070e5780601f106106e35761010080835404028352916020019161070e565b820191906000526020600020905b8154815290600101906020018083116106f157829003601f168201915b5050505050815260200160028201805461072790611acb565b80601f016020809104026020016040519081016040528092919081815260200182805461075390611acb565b80156107a05780601f10610775576101008083540402835291602001916107a0565b820191906000526020600020905b81548152906001019060200180831161078357829003601f168201915b505050505081526020016003820160009054906101000a900473ffffffffffffffffffffffffffffffffffffffff1673ffffffffffffffffffffffffffffffffffffffff1673ffffffffffffffffffffffffffffffffffffffff168152602001600482015481526020016005820160009054906101000a900460ff161515151581526020016006820154815260200160078201548152505090506000816060015190506000826000015111801561085d5750600154826000015111155b61086657600080fd5b816080015142106108ac576040517f08c379a00000000000000000000000000000000000000000000000000000000081526004016108a390611791565b60405180910390fd5b3373ffffffffffffffffffffffffffffffffffffffff168173ffffffffffffffffffffffffffffffffffffffff16141561091b576040517f08c379a000000000000000000000000000000000000000000000000000000000815260040161091290611731565b60405180910390fd5b6000341161092857600080fd5b348260c00181815161093a91906119d9565b91508181525050816002600086815260200190815260200160002060008201518160000155602082015181600101908051906020019061097b929190611327565b506040820151816002019080519060200190610998929190611327565b5060608201518160030160006101000a81548173ffffffffffffffffffffffffffffffffffffffff021916908373ffffffffffffffffffffffffffffffffffffffff1602179055506080820151816004015560a08201518160050160006101000a81548160ff02191690831515021790555060c0820151816006015560e08201518160070155905050346003600086815260200190815260200160002060003373ffffffffffffffffffffffffffffffffffffffff1673ffffffffffffffffffffffffffffffffffffffff1681526020019081526020016000206000828254610a8191906119d9565b9250508190555060011515610ab133600460008881526020019081526020016000206111af90919063ffffffff16565b151514610adf57610add33600460008781526020019081526020016000206111df90919063ffffffff16565b505b7fed1103816b4f1126eb83a3e5dbdd64821d6adebd7011092e8a7e9566cfa8f3f1826000015183606001513334604051610b1c94939291906117cc565b60405180910390a150505050565b806002600082815260200190815260200160002060030160009054906101000a900473ffffffffffffffffffffffffffffffffffffffff1673ffffffffffffffffffffffffffffffffffffffff163373ffffffffffffffffffffffffffffffffffffffff1614610bcf576040517f08c379a0000000000000000000000000000000000000000000000000000000008152600401610bc690611771565b60405180910390fd5b81600115156002600083815260200190815260200160002060050160009054906101000a900460ff16151514610c3a576040517f08c379a0000000000000000000000000000000000000000000000000000000008152600401610c3190611751565b60405180910390fd5b6000600260008581526020019081526020016000206040518061010001604052908160008201548152602001600182018054610c7590611acb565b80601f0160208091040260200160405190810160405280929190818152602001828054610ca190611acb565b8015610cee5780601f10610cc357610100808354040283529160200191610cee565b820191906000526020600020905b815481529060010190602001808311610cd157829003601f168201915b50505050508152602001600282018054610d0790611acb565b80601f0160208091040260200160405190810160405280929190818152602001828054610d3390611acb565b8015610d805780601f10610d5557610100808354040283529160200191610d80565b820191906000526020600020905b815481529060010190602001808311610d6357829003601f168201915b505050505081526020016003820160009054906101000a900473ffffffffffffffffffffffffffffffffffffffff1673ffffffffffffffffffffffffffffffffffffffff1673ffffffffffffffffffffffffffffffffffffffff168152602001600482015481526020016005820160009054906101000a900460ff1615151515815260200160068201548152602001600782015481525050905060008160a0019015159081151581525050806060015173ffffffffffffffffffffffffffffffffffffffff166108fc8260c001519081150290604051600060405180830381858888f19350505050158015610e79573d6000803e3d6000fd5b5060008160c00181815250508060026000868152602001908152602001600020600082015181600001556020820151816001019080519060200190610ebf929190611327565b506040820151816002019080519060200190610edc929190611327565b5060608201518160030160006101000a81548173ffffffffffffffffffffffffffffffffffffffff021916908373ffffffffffffffffffffffffffffffffffffffff1602179055506080820151816004015560a08201518160050160006101000a81548160ff02191690831515021790555060c0820151816006015560e082015181600701559050507f0d77a7c0d00f191be30313fd4836ac7cefb3488b8c158ae53fc717a858675770816000015182602001518360c00151604051610fa493929190611929565b60405180910390a150505050565b6000845111610fc057600080fd5b60008111610fcd57600080fd5b60008211610fda57600080fd5b60016000815480929190610fed90611b2e565b919050555060405180610100016040528060015481526020018581526020018481526020013373ffffffffffffffffffffffffffffffffffffffff1681526020018381526020016001151581526020016000815260200182815250600260006001548152602001908152602001600020600082015181600001556020820151816001019080519060200190611083929190611327565b5060408201518160020190805190602001906110a0929190611327565b5060608201518160030160006101000a81548173ffffffffffffffffffffffffffffffffffffffff021916908373ffffffffffffffffffffffffffffffffffffffff1602179055506080820151816004015560a08201518160050160006101000a81548160ff02191690831515021790555060c0820151816006015560e082015181600701559050507f318ae2105e4ed352c2e4ff310936d968690d612618b61006796a8a7709a1b00860015485853386600160008860405161116a989796959493929190611811565b60405180910390a150505050565b600047905090565b600061118e8260000161120f565b9050919050565b60006111a48360000183611220565b60001c905092915050565b60006111d7836000018373ffffffffffffffffffffffffffffffffffffffff1660001b611294565b905092915050565b6000611207836000018373ffffffffffffffffffffffffffffffffffffffff1660001b6112b7565b905092915050565b600081600001805490509050919050565b60008183600001805490501161126b576040517f08c379a000000000000000000000000000000000000000000000000000000000815260040161126290611711565b60405180910390fd5b82600001828154811061128157611280611bd5565b5b9060005260206000200154905092915050565b600080836001016000848152602001908152602001600020541415905092915050565b60006112c38383611294565b61131c578260000182908060018154018082558091505060019003906000526020600020016000909190919091505582600001805490508360010160008481526020019081526020016000208190555060019050611321565b600090505b92915050565b82805461133390611acb565b90600052602060002090601f016020900481019282611355576000855561139c565b82601f1061136e57805160ff191683800117855561139c565b8280016001018555821561139c579182015b8281111561139b578251825591602001919060010190611380565b5b5090506113a991906113ad565b5090565b5b808211156113c65760008160009055506001016113ae565b5090565b60006113dd6113d88461198c565b611967565b9050828152602081018484840111156113f9576113f8611c38565b5b611404848285611a89565b509392505050565b60008135905061141b81611d97565b92915050565b600082601f83011261143657611435611c33565b5b81356114468482602086016113ca565b91505092915050565b60008135905061145e81611dae565b92915050565b6000806000806080858703121561147e5761147d611c42565b5b600085013567ffffffffffffffff81111561149c5761149b611c3d565b5b6114a887828801611421565b945050602085013567ffffffffffffffff8111156114c9576114c8611c3d565b5b6114d587828801611421565b93505060406114e68782880161144f565b92505060606114f78782880161144f565b91505092959194509250565b60006020828403121561151957611518611c42565b5b60006115278482850161144f565b91505092915050565b6000806040838503121561154757611546611c42565b5b60006115558582860161144f565b92505060206115668582860161140c565b9150509250929050565b6000806040838503121561158757611586611c42565b5b60006115958582860161144f565b92505060206115a68582860161144f565b9150509250929050565b6115b981611a2f565b82525050565b6115c881611a41565b82525050565b6115d781611a77565b82525050565b60006115e8826119bd565b6115f281856119c8565b9350611602818560208601611a98565b61160b81611c47565b840191505092915050565b60006116236022836119c8565b915061162e82611c58565b604082019050919050565b60006116466033836119c8565b915061165182611ca7565b604082019050919050565b60006116696015836119c8565b915061167482611cf6565b602082019050919050565b600061168c6021836119c8565b915061169782611d1f565b604082019050919050565b60006116af6012836119c8565b91506116ba82611d6e565b602082019050919050565b6116ce81611a6d565b82525050565b60006020820190506116e960008301846115b0565b92915050565b6000602082019050818103600083015261170981846115dd565b905092915050565b6000602082019050818103600083015261172a81611616565b9050919050565b6000602082019050818103600083015261174a81611639565b9050919050565b6000602082019050818103600083015261176a8161165c565b9050919050565b6000602082019050818103600083015261178a8161167f565b9050919050565b600060208201905081810360008301526117aa816116a2565b9050919050565b60006020820190506117c660008301846116c5565b92915050565b60006080820190506117e160008301876116c5565b6117ee60208301866115b0565b6117fb60408301856115b0565b61180860608301846116c5565b95945050505050565b600061010082019050611827600083018b6116c5565b8181036020830152611839818a6115dd565b9050818103604083015261184d81896115dd565b905061185c60608301886115b0565b61186960808301876116c5565b61187660a08301866115bf565b61188360c08301856115ce565b61189060e08301846116c5565b9998505050505050505050565b6000610100820190506118b3600083018b6116c5565b81810360208301526118c5818a6115dd565b905081810360408301526118d981896115dd565b90506118e860608301886115b0565b6118f560808301876116c5565b61190260a08301866115bf565b61190f60c08301856116c5565b61191c60e08301846116c5565b9998505050505050505050565b600060608201905061193e60008301866116c5565b818103602083015261195081856115dd565b905061195f60408301846116c5565b949350505050565b6000611971611982565b905061197d8282611afd565b919050565b6000604051905090565b600067ffffffffffffffff8211156119a7576119a6611c04565b5b6119b082611c47565b9050602081019050919050565b600081519050919050565b600082825260208201905092915050565b60006119e482611a6d565b91506119ef83611a6d565b9250827fffffffffffffffffffffffffffffffffffffffffffffffffffffffffffffffff03821115611a2457611a23611b77565b5b828201905092915050565b6000611a3a82611a4d565b9050919050565b60008115159050919050565b600073ffffffffffffffffffffffffffffffffffffffff82169050919050565b6000819050919050565b6000611a8282611a6d565b9050919050565b82818337600083830152505050565b60005b83811015611ab6578082015181840152602081019050611a9b565b83811115611ac5576000848401525b50505050565b60006002820490506001821680611ae357607f821691505b60208210811415611af757611af6611ba6565b5b50919050565b611b0682611c47565b810181811067ffffffffffffffff82111715611b2557611b24611c04565b5b80604052505050565b6000611b3982611a6d565b91507fffffffffffffffffffffffffffffffffffffffffffffffffffffffffffffffff821415611b6c57611b6b611b77565b5b600182019050919050565b7f4e487b7100000000000000000000000000000000000000000000000000000000600052601160045260246000fd5b7f4e487b7100000000000000000000000000000000000000000000000000000000600052602260045260246000fd5b7f4e487b7100000000000000000000000000000000000000000000000000000000600052603260045260246000fd5b7f4e487b7100000000000000000000000000000000000000000000000000000000600052604160045260246000fd5b600080fd5b600080fd5b600080fd5b600080fd5b6000601f19601f8301169050919050565b7f456e756d657261626c655365743a20696e646578206f7574206f6620626f756e60008201527f6473000000000000000000000000000000000000000000000000000000000000602082015250565b7f4f776e65722063616e27742066756e64207468652070726f6a6563742063726560008201527f61746564206279207468656d73656c7665732e00000000000000000000000000602082015250565b7f50726f6a65637420646f65736e6f742065786973740000000000000000000000600082015250565b7f4f6e6c79206f776e65722063616e20636c6f736520746869732070726f6a656360008201527f7400000000000000000000000000000000000000000000000000000000000000602082015250565b7f50726f6a65637420697320636c6f7365642e0000000000000000000000000000600082015250565b611da081611a2f565b8114611dab57600080fd5b50565b611db781611a6d565b8114611dc257600080fd5b5056fea2646970667358221220d4f1eb2ff69f7bc4ccaaa7b3ee4b04b1f411b3b50ff4e05e95e482ecc68d13e264736f6c63430008060033",
  "immutableReferences": {},
  "source": "// SPDX-License-Identifier: MIT\n\npragma solidity ^0.8.4;\nimport '@openzeppelin/contracts/utils/structs/EnumerableSet.sol';\ncontract CrowdFunding {\n string public name; \n\n  uint256 public projectCount = 0;\n\n  mapping(uint256 => Project) public projects;\n  mapping(uint256 => mapping(address => uint256)) public contributions;\n\n  using EnumerableSet for EnumerableSet.AddressSet;\n\n  mapping(uint256 => EnumerableSet.AddressSet) private contributors;\n\n  struct Project {\n    uint256 id;\n    string name;\n    string desc;\n    address owner;\n    uint256 endDate;\n    bool exists;\n    uint256 balance;\n    uint256 target;\n  }\n\n   event ProjectCreated(\n    uint256 id,\n    string name,\n    string desc,\n    address owner,\n    uint256 endDate,\n    bool exists,\n    uint256 balance,\n    uint256 target\n  );\n\n  event ProjectFunded(uint256 id, address owner, address funder, uint256 amount);\n\n  event ProjectEnded(uint256 id, string name, uint256 balance);\n\n  constructor() {\n    name = 'Marketplace for crowd funding';\n  }\n   modifier OnlyOwner(uint256 projectId) {\n    require(msg.sender == projects[projectId].owner, 'Only owner can close this project');\n    _;\n  }\n  modifier ProjectExists(uint256 projectId) {\n    require(projects[projectId].exists == true, 'Project doesnot exist');\n    _;\n  }\n\n  function createProject(\n    string memory _name,\n    string memory _desc,\n    uint256 _endDate,\n    uint256 _target\n  ) public {\n    // Make sure parameters are correct and supplied\n    // Require a valid name\n    require(bytes(_name).length > 0);\n    // Require a valid target\n    require(_target > 0);\n    // Require a valid endDate\n    require(_endDate > 0);\n    //Increment Project Count\n    projectCount++;\n    // Create the project\n    projects[projectCount] = Project(\n      projectCount,\n      _name,\n      _desc,\n      msg.sender,\n      _endDate,\n      true,\n      0,\n      _target\n    );\n    // trigger an event\n    emit ProjectCreated(projectCount, _name, _desc, msg.sender, _endDate, true, 0, _target);\n  }\n\n  function fundProject(uint256 _id) public payable ProjectExists(_id) {\n    // Fetch the Project\n    Project memory _project = projects[_id];\n    //Fetch the Project Owner\n    address _owner = _project.owner;\n    // Make sure the project has valid ID\n    require(_project.id > 0 && _project.id <= projectCount);\n    // Check if the Project end Date is greater than now\n    require(block.timestamp < _project.endDate, 'Project is closed.');\n    // Check if the owner is trying to fund and reject it\n    require(_owner != msg.sender, \"Owner can't fund the project created by themselves.\");\n    //Sent ether must be greater than 0\n    require(msg.value > 0);\n    // Fund it\n    _project.balance += msg.value;\n    // Update the Project\n    projects[_id] = _project;\n    // contributors can again send the money\n    contributions[_id][msg.sender] += msg.value;\n\n    if (contributors[_id].contains(msg.sender) != true) {\n      contributors[_id].add(msg.sender);\n    }\n    // Trigger the event\n    emit ProjectFunded(_project.id, _project.owner, msg.sender, msg.value);\n  }\n\n  function closeProject(uint256 _id) public OnlyOwner(_id) ProjectExists(_id) {\n    // Fetch the Project\n    Project memory _project = projects[_id];\n    _project.exists = false;\n    payable(_project.owner).transfer(_project.balance);\n    _project.balance = 0;\n    projects[_id] = _project;\n    emit ProjectEnded(_project.id, _project.name, _project.balance);\n  }\n  \n  function getContibutionsLength(uint256 project_id)\n    public\n    view\n    ProjectExists(project_id)\n    returns (uint256 length)\n  {\n    return contributors[project_id].length();\n  }\n\n  function getContributor(uint256 project_id, uint256 position)\n    public\n    view\n    ProjectExists(project_id)\n    returns (address)\n  {\n    address _contributorsAddress = contributors[project_id].at(position);\n    return _contributorsAddress;\n  }\n  \n   function balanceOfProjects() public view returns (uint256) {\n    return address(this).balance;\n  }\n \n}",
  "sourcePath": "E:/Personal Projects/crowd-fund/contracts/CrowdFunding.sol",
  "compiler": {
    "name": "solc",
    "version": "0.8.6+commit.11564f7e.Emscripten.clang"
  },
  "schemaVersion": "3.3.3",
  "updatedAt": "2021-07-11T14:48:35.815Z",
  "networkType": "ethereum",
  "devdoc": {
    "kind": "dev",
    "methods": {},
    "version": 1
  },
  "userdoc": {
    "kind": "user",
    "methods": {},
    "version": 1
  }
}